{
  "contractName": "ExampleTokenCrowdsale",
  "abi": [
    {
      "constant": true,
      "inputs": [],
      "name": "rate",
      "outputs": [
        {
          "name": "",
          "type": "uint256"
        }
      ],
      "payable": false,
      "stateMutability": "view",
      "type": "function"
    },
    {
      "constant": true,
      "inputs": [],
      "name": "cap",
      "outputs": [
        {
          "name": "",
          "type": "uint256"
        }
      ],
      "payable": false,
      "stateMutability": "view",
      "type": "function"
    },
    {
      "constant": true,
      "inputs": [],
      "name": "weiRaised",
      "outputs": [
        {
          "name": "",
          "type": "uint256"
        }
      ],
      "payable": false,
      "stateMutability": "view",
      "type": "function"
    },
    {
      "constant": true,
      "inputs": [
        {
          "name": "",
          "type": "address"
        }
      ],
      "name": "contributions",
      "outputs": [
        {
          "name": "",
          "type": "uint256"
        }
      ],
      "payable": false,
      "stateMutability": "view",
      "type": "function"
    },
    {
      "constant": true,
      "inputs": [],
      "name": "capReached",
      "outputs": [
        {
          "name": "",
          "type": "bool"
        }
      ],
      "payable": false,
      "stateMutability": "view",
      "type": "function"
    },
    {
      "constant": true,
      "inputs": [],
      "name": "wallet",
      "outputs": [
        {
          "name": "",
          "type": "address"
        }
      ],
      "payable": false,
      "stateMutability": "view",
      "type": "function"
    },
    {
      "constant": true,
      "inputs": [],
      "name": "investorMinCap",
      "outputs": [
        {
          "name": "",
          "type": "uint256"
        }
      ],
      "payable": false,
      "stateMutability": "view",
      "type": "function"
    },
    {
      "constant": false,
      "inputs": [
        {
          "name": "_beneficiary",
          "type": "address"
        }
      ],
      "name": "buyTokens",
      "outputs": [],
      "payable": true,
      "stateMutability": "payable",
      "type": "function"
    },
    {
      "constant": true,
      "inputs": [],
      "name": "investorHardCap",
      "outputs": [
        {
          "name": "",
          "type": "uint256"
        }
      ],
      "payable": false,
      "stateMutability": "view",
      "type": "function"
    },
    {
      "constant": true,
      "inputs": [],
      "name": "token",
      "outputs": [
        {
          "name": "",
          "type": "address"
        }
      ],
      "payable": false,
      "stateMutability": "view",
      "type": "function"
    },
    {
      "inputs": [
        {
          "name": "_rate",
          "type": "uint256"
        },
        {
          "name": "_wallet",
          "type": "address"
        },
        {
          "name": "_token",
          "type": "address"
        },
        {
          "name": "_cap",
          "type": "uint256"
        }
      ],
      "payable": false,
      "stateMutability": "nonpayable",
      "type": "constructor"
    },
    {
      "payable": true,
      "stateMutability": "payable",
      "type": "fallback"
    },
    {
      "anonymous": false,
      "inputs": [
        {
          "indexed": true,
          "name": "purchaser",
          "type": "address"
        },
        {
          "indexed": true,
          "name": "beneficiary",
          "type": "address"
        },
        {
          "indexed": false,
          "name": "value",
          "type": "uint256"
        },
        {
          "indexed": false,
          "name": "amount",
          "type": "uint256"
        }
      ],
      "name": "TokenPurchase",
      "type": "event"
    }
  ],
  "bytecode": "0x6080604052674563918244f400006005556802b5e3af16b188000060065534801561002957600080fd5b50604051608080610975833981018060405281019080805190602001909291908051906020019092919080519060200190929190805190602001909291905050508084848460008311151561007d57600080fd5b600073ffffffffffffffffffffffffffffffffffffffff168273ffffffffffffffffffffffffffffffffffffffff16141515156100b957600080fd5b600073ffffffffffffffffffffffffffffffffffffffff168173ffffffffffffffffffffffffffffffffffffffff16141515156100f557600080fd5b8260028190555081600160006101000a81548173ffffffffffffffffffffffffffffffffffffffff021916908373ffffffffffffffffffffffffffffffffffffffff160217905550806000806101000a81548173ffffffffffffffffffffffffffffffffffffffff021916908373ffffffffffffffffffffffffffffffffffffffff16021790555050505060008111151561018f57600080fd5b8060048190555050505050506107cb806101aa6000396000f3006080604052600436106100a4576000357c0100000000000000000000000000000000000000000000000000000000900463ffffffff1680632c4e722e146100af578063355274ea146100da5780634042b66f1461010557806342e94c90146101305780634f93594514610187578063521eb273146101b6578063b25d7f541461020d578063ec8ac4d814610238578063ed5db8741461026e578063fc0c546a14610299575b6100ad336102f0565b005b3480156100bb57600080fd5b506100c46103be565b6040518082815260200191505060405180910390f35b3480156100e657600080fd5b506100ef6103c4565b6040518082815260200191505060405180910390f35b34801561011157600080fd5b5061011a6103ca565b6040518082815260200191505060405180910390f35b34801561013c57600080fd5b50610171600480360381019080803573ffffffffffffffffffffffffffffffffffffffff1690602001909291905050506103d0565b6040518082815260200191505060405180910390f35b34801561019357600080fd5b5061019c6103e8565b604051808215151515815260200191505060405180910390f35b3480156101c257600080fd5b506101cb6103f7565b604051808273ffffffffffffffffffffffffffffffffffffffff1673ffffffffffffffffffffffffffffffffffffffff16815260200191505060405180910390f35b34801561021957600080fd5b5061022261041d565b6040518082815260200191505060405180910390f35b61026c600480360381019080803573ffffffffffffffffffffffffffffffffffffffff1690602001909291905050506102f0565b005b34801561027a57600080fd5b50610283610423565b6040518082815260200191505060405180910390f35b3480156102a557600080fd5b506102ae610429565b604051808273ffffffffffffffffffffffffffffffffffffffff1673ffffffffffffffffffffffffffffffffffffffff16815260200191505060405180910390f35b600080349150610300838361044e565b6103098261051b565b90506103208260035461053990919063ffffffff16565b6003819055506103308382610555565b8273ffffffffffffffffffffffffffffffffffffffff163373ffffffffffffffffffffffffffffffffffffffff167f623b3804fa71d67900d064613da8f94b9617215ee90799290593e1745087ad188484604051808381526020018281526020019250505060405180910390a36103a78383610563565b6103af610567565b6103b983836105d2565b505050565b60025481565b60045481565b60035481565b60076020528060005260406000206000915090505481565b60006004546003541015905090565b600160009054906101000a900473ffffffffffffffffffffffffffffffffffffffff1681565b60055481565b60065481565b6000809054906101000a900473ffffffffffffffffffffffffffffffffffffffff1681565b60008061045b84846105d6565b600760008573ffffffffffffffffffffffffffffffffffffffff1673ffffffffffffffffffffffffffffffffffffffff1681526020019081526020016000205491506104b0838361053990919063ffffffff16565b905060055481101580156104c657506006548111155b15156104d157600080fd5b80600760008673ffffffffffffffffffffffffffffffffffffffff1673ffffffffffffffffffffffffffffffffffffffff1681526020019081526020016000208190555050505050565b60006105326002548361060990919063ffffffff16565b9050919050565b6000818301905082811015151561054c57fe5b80905092915050565b61055f8282610641565b5050565b5050565b600160009054906101000a900473ffffffffffffffffffffffffffffffffffffffff1673ffffffffffffffffffffffffffffffffffffffff166108fc349081150290604051600060405180830381858888f193505050501580156105cf573d6000803e3d6000fd5b50565b5050565b6105e0828261074f565b6004546105f88260035461053990919063ffffffff16565b1115151561060557600080fd5b5050565b60008083141561061c576000905061063b565b818302905081838281151561062d57fe5b0414151561063757fe5b8090505b92915050565b6000809054906101000a900473ffffffffffffffffffffffffffffffffffffffff1673ffffffffffffffffffffffffffffffffffffffff166340c10f1983836040518363ffffffff167c0100000000000000000000000000000000000000000000000000000000028152600401808373ffffffffffffffffffffffffffffffffffffffff1673ffffffffffffffffffffffffffffffffffffffff16815260200182815260200192505050602060405180830381600087803b15801561070557600080fd5b505af1158015610719573d6000803e3d6000fd5b505050506040513d602081101561072f57600080fd5b8101908080519060200190929190505050151561074b57600080fd5b5050565b600073ffffffffffffffffffffffffffffffffffffffff168273ffffffffffffffffffffffffffffffffffffffff161415151561078b57600080fd5b6000811415151561079b57600080fd5b50505600a165627a7a72305820794bfacfc73184866680ccc293789cfbad7096dca67cb357156f3eb24e2317110029",
  "source": "pragma solidity ^0.4.24;\r\n\r\n\r\nimport \"openzeppelin-solidity/contracts/crowdsale/Crowdsale.sol\";\r\nimport \"openzeppelin-solidity/contracts/crowdsale/emission/MintedCrowdsale.sol\";\r\nimport \"openzeppelin-solidity/contracts/crowdsale/validation/CappedCrowdsale.sol\";\r\n\r\ncontract ExampleTokenCrowdsale is Crowdsale, MintedCrowdsale, CappedCrowdsale{\r\n\r\n  //minimum investor Contribution - 20000000000000000000\r\n  //minimum investor Contribution - 50000000000000000000\r\n  uint256 public investorMinCap = 5000000000000000000;\r\n  uint256 public investorHardCap = 50000000000000000000;\r\n\r\n  mapping(address => uint256) public contributions;\r\n\r\n  constructor(uint256 _rate,\r\n    address _wallet,\r\n    ERC20 _token,\r\n    uint256 _cap)\r\n  Crowdsale(_rate, _wallet, _token)\r\n  CappedCrowdsale(_cap)\r\n  public{\r\n  }\r\n\r\n\r\n  function _preValidatePurchase(\r\n    address _beneficiary,\r\n    uint256 _weiAmount\r\n  )\r\n    internal\r\n  {\r\n    super._preValidatePurchase(_beneficiary, _weiAmount);\r\n    uint256 _existingContribution = contributions[_beneficiary];\r\n    uint256 _newContribution = _existingContribution.add(_weiAmount);\r\n    require(_newContribution >= investorMinCap && _newContribution <= investorHardCap);\r\n  contributions[_beneficiary] = _newContribution;\r\n  }\r\n\r\n}\r\n",
  "sourcePath": "C:\\Users\\Taylor\\Desktop\\Repositories\\BlockChain\\ExampleToken\\contracts\\ExampleTokenCrowdsale.sol",
  "compiler": {
    "name": "solc",
    "version": "0.4.25+commit.59dbf8f1.Emscripten.clang"
  },
  "schemaVersion": "2.0.2",
  "updatedAt": "2019-03-13T21:51:09.225Z"
}